{
  "_format": "hh-sol-artifact-1",
  "contractName": "CryptoOrb",
  "sourceName": "contracts/CryptoOrb.sol",
  "abi": [
    {
      "inputs": [],
      "stateMutability": "nonpayable",
      "type": "constructor"
    },
    {
      "inputs": [],
      "name": "getRandom",
      "outputs": [
        {
          "internalType": "string",
          "name": "",
          "type": "string"
        }
      ],
      "stateMutability": "view",
      "type": "function"
    }
  ],
  "bytecode": "0x60806040526040518061028001604052806040518060400160405280601081526020017f41732049207365652069742c207965730000000000000000000000000000000081525081526020016040518060400160405280600d81526020017f4974206973206365727461696e0000000000000000000000000000000000000081525081526020016040518060400160405280601281526020017f497420697320646563696465646c7920736f000000000000000000000000000081525081526020016040518060400160405280600b81526020017f4d6f7374206c696b656c7900000000000000000000000000000000000000000081525081526020016040518060400160405280600c81526020017f4f75746c6f6f6b20676f6f64000000000000000000000000000000000000000081525081526020016040518060400160405280601281526020017f5369676e7320706f696e7420746f20796573000000000000000000000000000081525081526020016040518060400160405280600f81526020017f576974686f7574206120646f756274000000000000000000000000000000000081525081526020016040518060400160405280600381526020017f596573000000000000000000000000000000000000000000000000000000000081525081526020016040518060400160405280601081526020017f596573202d20646566696e6974656c790000000000000000000000000000000081525081526020016040518060400160405280601281526020017f596f75206d61792072656c79206f6e206974000000000000000000000000000081525081526020016040518060400160405280601581526020017f5265706c792068617a792c2074727920616761696e000000000000000000000081525081526020016040518060400160405280600f81526020017f41736b20616761696e206c61746572000000000000000000000000000000000081525081526020016040518060400160405280601781526020017f426574746572206e6f742074656c6c20796f75206e6f7700000000000000000081525081526020016040518060400160405280601281526020017f43616e6e6f742070726564696374206e6f77000000000000000000000000000081525081526020016040518060400160405280601981526020017f436f6e63656e747261746520616e642061736b20616761696e0000000000000081525081526020016040518060400160405280601181526020017f446f6e277420636f756e74206f6e20697400000000000000000000000000000081525081526020016040518060400160405280600e81526020017f4d79207265706c79206973206e6f00000000000000000000000000000000000081525081526020016040518060400160405280601181526020017f4d7920736f757263657320736179206e6f00000000000000000000000000000081525081526020016040518060400160405280601381526020017f4f75746c6f6f6b206e6f7420736f20676f6f640000000000000000000000000081525081526020016040518060400160405280600d81526020017f5665727920646f75627466756c000000000000000000000000000000000000008152508152506000906014620004bc929190620005e8565b50348015620004ca57600080fd5b50620005166040518060400160405280601381526020017f4465706c6f79696e672043727970746f4f7262000000000000000000000000008152506200051c60201b6200012f1760201c565b6200089a565b620005bc81604051602401620005339190620007ae565b6040516020818303038152906040527f41304fac000000000000000000000000000000000000000000000000000000007bffffffffffffffffffffffffffffffffffffffffffffffffffffffff19166020820180517bffffffffffffffffffffffffffffffffffffffffffffffffffffffff8381831617835250505050620005bf60201b60201c565b50565b60008151905060006a636f6e736f6c652e6c6f679050602083016000808483855afa5050505050565b8280548282559060005260206000209081019282156200063c579160200282015b828111156200063b5782518290805190602001906200062a9291906200064f565b509160200191906001019062000609565b5b5090506200064b9190620006e0565b5090565b8280546200065d9062000824565b90600052602060002090601f016020900481019282620006815760008555620006cd565b82601f106200069c57805160ff1916838001178555620006cd565b82800160010185558215620006cd579182015b82811115620006cc578251825591602001919060010190620006af565b5b509050620006dc919062000708565b5090565b5b80821115620007045760008181620006fa919062000727565b50600101620006e1565b5090565b5b808211156200072357600081600090555060010162000709565b5090565b508054620007359062000824565b6000825580601f106200074957506200076a565b601f01602090049060005260206000209081019062000769919062000708565b5b50565b60006200077a82620007d2565b620007868185620007dd565b935062000798818560208601620007ee565b620007a38162000889565b840191505092915050565b60006020820190508181036000830152620007ca81846200076d565b905092915050565b600081519050919050565b600082825260208201905092915050565b60005b838110156200080e578082015181840152602081019050620007f1565b838111156200081e576000848401525b50505050565b600060028204905060018216806200083d57607f821691505b602082108114156200085457620008536200085a565b5b50919050565b7f4e487b7100000000000000000000000000000000000000000000000000000000600052602260045260246000fd5b6000601f19601f8301169050919050565b6104ac80620008aa6000396000f3fe608060405234801561001057600080fd5b506004361061002b5760003560e01c8063aacc5a1714610030575b600080fd5b61003861004e565b60405161004591906102bc565b60405180910390f35b6060600061005a6101c8565b905060008181548110610096577f4e487b7100000000000000000000000000000000000000000000000000000000600052603260045260246000fd5b9060005260206000200180546100ab9061036b565b80601f01602080910402602001604051908101604052809291908181526020018280546100d79061036b565b80156101245780601f106100f957610100808354040283529160200191610124565b820191906000526020600020905b81548152906001019060200180831161010757829003601f168201915b505050505091505090565b6101c58160405160240161014391906102bc565b6040516020818303038152906040527f41304fac000000000000000000000000000000000000000000000000000000007bffffffffffffffffffffffffffffffffffffffffffffffffffffffff19166020820180517bffffffffffffffffffffffffffffffffffffffffffffffffffffffff8381831617835250505050610217565b50565b600060016000805490506101dc91906102fa565b44426040516020016101ef929190610290565b6040516020818303038152906040528051906020012060001c61021291906103a7565b905090565b60008151905060006a636f6e736f6c652e6c6f679050602083016000808483855afa5050505050565b600061024b826102de565b61025581856102e9565b9350610265818560208601610338565b61026e81610465565b840191505092915050565b61028a6102858261032e565b61039d565b82525050565b600061029c8285610279565b6020820191506102ac8284610279565b6020820191508190509392505050565b600060208201905081810360008301526102d68184610240565b905092915050565b600081519050919050565b600082825260208201905092915050565b60006103058261032e565b91506103108361032e565b925082821015610323576103226103d8565b5b828203905092915050565b6000819050919050565b60005b8381101561035657808201518184015260208101905061033b565b83811115610365576000848401525b50505050565b6000600282049050600182168061038357607f821691505b6020821081141561039757610396610436565b5b50919050565b6000819050919050565b60006103b28261032e565b91506103bd8361032e565b9250826103cd576103cc610407565b5b828206905092915050565b7f4e487b7100000000000000000000000000000000000000000000000000000000600052601160045260246000fd5b7f4e487b7100000000000000000000000000000000000000000000000000000000600052601260045260246000fd5b7f4e487b7100000000000000000000000000000000000000000000000000000000600052602260045260246000fd5b6000601f19601f830116905091905056fea2646970667358221220ebc1ae1bc52f498bdeb9c1cfc2283901fec4d74d41ce9c25e5fbf0cf920ac17464736f6c63430008040033",
  "linkReferences": {},
  "deployedLinkReferences": {}
}